1000000001DARL ELLISON FLORESCA         A0001000000
1000000002JUAN DELA CRUZ               I0000050000
1000000003MARIA CLARA                  A0007500050
1000000004SIMOUN IBARRA                A0000120075
1000000005DONYA VICTORINA              I0009999999